100011003200800063300551200000000000740000000000000000000000000740000100000000000000012851000006330001052052052000261143029001                                
001111111100000000000000000   000000000000   0000000000000000000000000000000000000000000000000000000000000000000000003                                        
200000000000220000000010000074000000074000000000000000074000001000000005512000000000000000128510717000000012580000000000000070000000000                    000
4100000000000000012851ARIONALDO ALVES MENDES DA SILVA                 200000462908424041000000000000000000000PE000000000000000                                
42BERNADETE BARRETO                               71      APTO 104            PIEDADE             JABOATAO DOS GUARARA54410640                                
531                                                                                                                                                           
